{"contracts/UserProfile.sol":{"UserProfileDebug":{"abi":[{"anonymous":false,"inputs":[{"indexed":false,"internalType":"string","name":"message","type":"string"},{"indexed":false,"internalType":"bytes32","name":"data","type":"bytes32"},{"indexed":false,"internalType":"address","name":"addr","type":"address"}],"name":"Debug","type":"event"},{"anonymous":false,"inputs":[{"indexed":false,"internalType":"bytes32","name":"hash","type":"bytes32"}],"name":"DebugHash","type":"event"},{"anonymous":false,"inputs":[{"indexed":false,"internalType":"string","name":"message","type":"string"}],"name":"DebugMessage","type":"event"},{"anonymous":false,"inputs":[{"indexed":false,"internalType":"bytes32","name":"r","type":"bytes32"},{"indexed":false,"internalType":"bytes32","name":"s","type":"bytes32"},{"indexed":false,"internalType":"uint8","name":"v","type":"uint8"},{"indexed":false,"internalType":"address","name":"recovered","type":"address"}],"name":"DebugSignature","type":"event"},{"anonymous":false,"inputs":[{"indexed":true,"internalType":"address","name":"user","type":"address"},{"indexed":false,"internalType":"string","name":"storjUrl","type":"string"},{"indexed":false,"internalType":"uint256","name":"timestamp","type":"uint256"}],"name":"ProfileCreated","type":"event"},{"inputs":[{"internalType":"string","name":"storjUrl","type":"string"},{"internalType":"bytes32","name":"legalNameHash","type":"bytes32"},{"internalType":"string","name":"nickname","type":"string"},{"internalType":"bytes","name":"signature","type":"bytes"}],"name":"createProfile","outputs":[],"stateMutability":"nonpayable","type":"function"},{"inputs":[{"internalType":"address","name":"user","type":"address"}],"name":"getProfile","outputs":[{"components":[{"internalType":"string","name":"storjProfileUrl","type":"string"},{"internalType":"bytes32","name":"legalNameHash","type":"bytes32"},{"internalType":"bool","name":"legalNameChanged","type":"bool"},{"internalType":"uint256","name":"createdAt","type":"uint256"},{"internalType":"uint256","name":"nonce","type":"uint256"}],"internalType":"struct UserProfileDebug.Profile","name":"","type":"tuple"}],"stateMutability":"view","type":"function"},{"inputs":[{"internalType":"string","name":"","type":"string"}],"name":"nicknameToAddress","outputs":[{"internalType":"address","name":"","type":"address"}],"stateMutability":"view","type":"function"},{"inputs":[{"internalType":"address","name":"user","type":"address"}],"name":"profileExists","outputs":[{"internalType":"bool","name":"","type":"bool"}],"stateMutability":"view","type":"function"},{"inputs":[{"internalType":"address","name":"","type":"address"}],"name":"profiles","outputs":[{"internalType":"string","name":"storjProfileUrl","type":"string"},{"internalType":"bytes32","name":"legalNameHash","type":"bytes32"},{"internalType":"bool","name":"legalNameChanged","type":"bool"},{"internalType":"uint256","name":"createdAt","type":"uint256"},{"internalType":"uint256","name":"nonce","type":"uint256"}],"stateMutability":"view","type":"function"},{"inputs":[{"internalType":"string","name":"storjUrl","type":"string"},{"internalType":"bytes32","name":"legalNameHash","type":"bytes32"},{"internalType":"string","name":"nickname","type":"string"}],"name":"testMessage","outputs":[{"internalType":"string","name":"","type":"string"}],"stateMutability":"view","type":"function"},{"inputs":[{"internalType":"string","name":"message","type":"string"},{"internalType":"bytes","name":"signature","type":"bytes"}],"name":"testSignatureRecovery","outputs":[{"internalType":"address","name":"recovered","type":"address"}],"stateMutability":"view","type":"function"}],"evm":{"bytecode":{"linkReferences":{},"object":"608060405234801561001057600080fd5b506118fb806100206000396000f3fe608060405234801561001057600080fd5b506004361061007d5760003560e01c80639e84e3a11161005b5780639e84e3a1146100fa578063bbe1562714610146578063d8a8abfb1461016a578063f621b1591461017d57600080fd5b806305cfa06f146100825780630f53a470146100c55780635587a20e146100e5575b600080fd5b6100b0610090366004610feb565b6001600160a01b0316600090815260208190526040902060030154151590565b60405190151581526020015b60405180910390f35b6100d86100d3366004610feb565b61019d565b6040516100bc919061106b565b6100f86100f3366004611106565b6102b0565b005b61012e6101083660046111c0565b80516020818301810180516001825292820191909301209152546001600160a01b031681565b6040516001600160a01b0390911681526020016100bc565b610159610154366004610feb565b61083a565b6040516100bc959493929190611271565b61012e6101783660046112a8565b6108f5565b61019061018b366004611314565b610a14565b6040516100bc919061138e565b6040805160a0810182526060808252600060208301819052928201839052810182905260808101919091526001600160a01b03821660009081526020819052604090819020815160a081019092528054829082906101fa906113a1565b80601f0160208091040260200160405190810160405280929190818152602001828054610226906113a1565b80156102735780601f1061024857610100808354040283529160200191610273565b820191906000526020600020905b81548152906001019060200180831161025657829003601f168201915b505050918352505060018201546020820152600282015460ff16151560408201526003820154606082015260049091015460809091015292915050565b6040805160608082526019908201527f5374617274696e672070726f66696c65206372656174696f6e00000000000000608082015260208101879052338183015290516000805160206118a68339815191529181900360a00190a1336000908152602081905260409020600301541561036c576000805160206118a68339815191526000336040516103439291906113db565b60405180910390a160405162461bcd60e51b81526004016103639061142f565b60405180910390fd5b60006001600160a01b03166001858560405161038992919061146b565b908152604051908190036020019020546001600160a01b0316146103e7576000805160206118a68339815191526000336040516103c792919061147b565b60405180910390a160405162461bcd60e51b8152600401610363906114a9565b600087876103f488610a5b565b87876103ff33610c28565b604051602001610414969594939291906114d7565b60405160208183030381529060405290507f2ca7ea951db3bc93c3c659c7ddf08261b1b1153e0685c16b88444c6235865c5381604051610454919061138e565b60405180910390a160008160405160200161046f9190611557565b60408051601f1981840301815290829052805160209182012080835292507fd6bb8e17062dc41668755c8f977e71bcbad0e687e1328bc6247a4c90f658bc24910160405180910390a160006104c48351610df8565b836040516020016104d6929190611573565b60408051601f1981840301815290829052805160209182012080835292507fd6bb8e17062dc41668755c8f977e71bcbad0e687e1328bc6247a4c90f658bc24910160405180910390a1600080600061056388888080601f016020809104026020016040519081016040528093929190818152602001838380828437600092019190915250610f0192505050565b604080518481526020810184905260ff83168183015260006060820152905193965091945092507ff5ecb6508a5740142da47b075668676982f3c32d310234bca55e44e7948f62af919081900360800190a16040805160008082526020820180845287905260ff841692820192909252606081018590526080810184905260019060a0016020604051602081039080840390855afa158015610609573d6000803e3d6000fd5b505060408051601f198101518782526020820187905260ff8616828401526001600160a01b038116606083015291519193507ff5ecb6508a5740142da47b075668676982f3c32d310234bca55e44e7948f62af925081900360800190a16001600160a01b03811633146106b6576000805160206118a68339815191526000336040516106969291906115ce565b60405180910390a160405162461bcd60e51b8152600401610363906115ff565b6040518060a001604052808f8f8080601f016020809104026020016040519081016040528093929190818152602001838380828437600081840152601f19601f8201169050808301925050505050505081526020018d81526020016000151581526020014281526020016000815250600080336001600160a01b03166001600160a01b03168152602001908152602001600020600082015181600001908161075e919061167f565b506020820151816001015560408201518160020160006101000a81548160ff02191690831515021790555060608201518160030155608082015181600401559050503360018c8c6040516107b392919061146b565b908152602001604051809103902060006101000a8154816001600160a01b0302191690836001600160a01b03160217905550336001600160a01b03167f25dbccf9f713a2b16ed5d635585b4778d0d7e66b7b631871e668a694131e5fad8f8f426040516108229392919061173f565b60405180910390a25050505050505050505050505050565b600060208190529081526040902080548190610855906113a1565b80601f0160208091040260200160405190810160405280929190818152602001828054610881906113a1565b80156108ce5780601f106108a3576101008083540402835291602001916108ce565b820191906000526020600020905b8154815290600101906020018083116108b157829003601f168201915b505050506001830154600284015460038501546004909501549394919360ff909116925085565b600080858560405160200161090b92919061146b565b60408051601f1981840301815291905280516020909101209050600061093086610df8565b878760405160200161094493929190611778565b60405160208183030381529060405280519060200120905060008060006109a088888080601f016020809104026020016040519081016040528093929190818152602001838380828437600092019190915250610f0192505050565b60408051600081526020810180835289905260ff8316918101919091526060810184905260808101839052929550909350915060019060a0016020604051602081039080840390855afa1580156109fb573d6000803e3d6000fd5b5050604051601f1901519b9a5050505050505050505050565b60608585610a2186610a5b565b8585610a2c33610c28565b604051602001610a41969594939291906114d7565b604051602081830303815290604052905095945050505050565b604080518082018252601081526f181899199a1a9b1b9c1cb0b131b232b360811b6020820152815160428082526080820190935260609260009190602082018180368337019050509050600360fc1b81600081518110610abd57610abd6117cc565b60200101906001600160f81b031916908160001a905350600f60fb1b81600181518110610aec57610aec6117cc565b60200101906001600160f81b031916908160001a90535060005b6020811015610c2057826004868360208110610b2457610b246117cc565b1a60f81b6001600160f81b031916901c60f81c60ff1681518110610b4a57610b4a6117cc565b01602001516001600160f81b03191682610b658360026117f8565b610b7090600261180f565b81518110610b8057610b806117cc565b60200101906001600160f81b031916908160001a90535082858260208110610baa57610baa6117cc565b825191901a600f16908110610bc157610bc16117cc565b01602001516001600160f81b03191682610bdc8360026117f8565b610be790600361180f565b81518110610bf757610bf76117cc565b60200101906001600160f81b031916908160001a90535080610c1881611822565b915050610b06565b509392505050565b604080518082018252601081526f181899199a1a9b1b9c1cb0b131b232b360811b60208201528151602a808252606082810190945284841b9291600091602082018180368337019050509050600360fc1b81600081518110610c8c57610c8c6117cc565b60200101906001600160f81b031916908160001a905350600f60fb1b81600181518110610cbb57610cbb6117cc565b60200101906001600160f81b031916908160001a90535060005b6014811015610def57826004858360148110610cf357610cf36117cc565b1a60f81b6001600160f81b031916901c60f81c60ff1681518110610d1957610d196117cc565b01602001516001600160f81b03191682610d348360026117f8565b610d3f90600261180f565b81518110610d4f57610d4f6117cc565b60200101906001600160f81b031916908160001a90535082848260148110610d7957610d796117cc565b825191901a600f16908110610d9057610d906117cc565b01602001516001600160f81b03191682610dab8360026117f8565b610db690600361180f565b81518110610dc657610dc66117cc565b60200101906001600160f81b031916908160001a90535080610de781611822565b915050610cd5565b50949350505050565b606081600003610e1f5750506040805180820190915260018152600360fc1b602082015290565b8160005b8115610e495780610e3381611822565b9150610e429050600a83611851565b9150610e23565b60008167ffffffffffffffff811115610e6457610e646111aa565b6040519080825280601f01601f191660200182016040528015610e8e576020820181803683370190505b5090505b8415610ef957610ea3600183611865565b9150610eb0600a86611878565b610ebb90603061180f565b60f81b818381518110610ed057610ed06117cc565b60200101906001600160f81b031916908160001a905350610ef2600a86611851565b9450610e92565b949350505050565b60008060008351604114610f575760405162461bcd60e51b815260206004820152601860248201527f496e76616c6964207369676e6174757265206c656e67746800000000000000006044820152606401610363565b50505060208101516040820151606083015160001a601b811015610f8357610f80601b8261188c565b90505b8060ff16601b1480610f9857508060ff16601c145b610fe45760405162461bcd60e51b815260206004820152601960248201527f496e76616c6964207369676e617475726520762076616c7565000000000000006044820152606401610363565b9193909250565b600060208284031215610ffd57600080fd5b81356001600160a01b038116811461101457600080fd5b9392505050565b60005b8381101561103657818101518382015260200161101e565b50506000910152565b6000815180845261105781602086016020860161101b565b601f01601f19169290920160200192915050565b602081526000825160a0602084015261108760c084018261103f565b90506020840151604084015260408401511515606084015260608401516080840152608084015160a08401528091505092915050565b60008083601f8401126110cf57600080fd5b50813567ffffffffffffffff8111156110e757600080fd5b6020830191508360208285010111156110ff57600080fd5b9250929050565b60008060008060008060006080888a03121561112157600080fd5b873567ffffffffffffffff8082111561113957600080fd5b6111458b838c016110bd565b909950975060208a0135965060408a013591508082111561116557600080fd5b6111718b838c016110bd565b909650945060608a013591508082111561118a57600080fd5b506111978a828b016110bd565b989b979a50959850939692959293505050565b634e487b7160e01b600052604160045260246000fd5b6000602082840312156111d257600080fd5b813567ffffffffffffffff808211156111ea57600080fd5b818401915084601f8301126111fe57600080fd5b813581811115611210576112106111aa565b604051601f8201601f19908116603f01168101908382118183101715611238576112386111aa565b8160405282815287602084870101111561125157600080fd5b826020860160208301376000928101602001929092525095945050505050565b60a08152600061128460a083018861103f565b60208301969096525092151560408401526060830191909152608090910152919050565b600080600080604085870312156112be57600080fd5b843567ffffffffffffffff808211156112d657600080fd5b6112e2888389016110bd565b909650945060208701359150808211156112fb57600080fd5b50611308878288016110bd565b95989497509550505050565b60008060008060006060868803121561132c57600080fd5b853567ffffffffffffffff8082111561134457600080fd5b61135089838a016110bd565b909750955060208801359450604088013591508082111561137057600080fd5b5061137d888289016110bd565b969995985093965092949392505050565b602081526000611014602083018461103f565b600181811c908216806113b557607f821691505b6020821081036113d557634e487b7160e01b600052602260045260246000fd5b50919050565b60608152600061141160608301601681527550726f66696c6520616c72656164792065786973747360501b602082015260400190565b6020830194909452506001600160a01b039190911660409091015290565b60208152600061146560208301601681527550726f66696c6520616c72656164792065786973747360501b602082015260400190565b92915050565b8183823760009101908152919050565b60608152600061141160608301600e81526d2734b1b5b730b6b2903a30b5b2b760911b602082015260400190565b60208152600061146560208301600e81526d2734b1b5b730b6b2903a30b5b2b760911b602082015260400190565b70021b932b0ba3290283937b334b63290169607d1b81528587601183013760008682016201016960ed1b806011830152875161151a816014850160208c0161101b565b6014920191820181905285876017840137601791860191820152835161154781601a84016020880161101b565b01601a0198975050505050505050565b6000825161156981846020870161101b565b9190910192915050565b7f19457468657265756d205369676e6564204d6573736167653a0a0000000000008152600083516115ab81601a85016020880161101b565b8351908301906115c281601a84016020880161101b565b01601a01949350505050565b606081526000611411606083016011815270496e76616c6964207369676e617475726560781b602082015260400190565b602081526000611465602083016011815270496e76616c6964207369676e617475726560781b602082015260400190565b601f82111561167a57600081815260208120601f850160051c810160208610156116575750805b601f850160051c820191505b8181101561167657828155600101611663565b5050505b505050565b815167ffffffffffffffff811115611699576116996111aa565b6116ad816116a784546113a1565b84611630565b602080601f8311600181146116e257600084156116ca5750858301515b600019600386901b1c1916600185901b178555611676565b600085815260208120601f198616915b82811015611711578886015182559484019460019091019084016116f2565b508582101561172f5787850151600019600388901b60f8161c191681555b5050505050600190811b01905550565b604081528260408201528284606083013760006060848301015260006060601f19601f8601168301019050826020830152949350505050565b7f19457468657265756d205369676e6564204d6573736167653a0a0000000000008152600084516117b081601a85016020890161101b565b82018385601a83013760009301601a0192835250909392505050565b634e487b7160e01b600052603260045260246000fd5b634e487b7160e01b600052601160045260246000fd5b8082028115828204841417611465576114656117e2565b80820180821115611465576114656117e2565b600060018201611834576118346117e2565b5060010190565b634e487b7160e01b600052601260045260246000fd5b6000826118605761186061183b565b500490565b81810381811115611465576114656117e2565b6000826118875761188761183b565b500690565b60ff8181168382160190811115611465576114656117e256fe21966e86db68246feb6ab5f064f983a579cf9b0e394f47117c1e18ed7b401d5ba2646970667358221220451ac8d71fd803eb1ff9c16dadd4250a44a7b0711fee8970435e89b9b4e5bb3d64736f6c63430008130033","opcodes":"PUSH1 0x80 PUSH1 0x40 MSTORE CALLVALUE DUP1 ISZERO PUSH2 0x10 JUMPI PUSH1 0x0 DUP1 REVERT JUMPDEST POP PUSH2 0x18FB DUP1 PUSH2 0x20 PUSH1 0x0 CODECOPY PUSH1 0x0 RETURN INVALID PUSH1 0x80 PUSH1 0x40 MSTORE CALLVALUE DUP1 ISZERO PUSH2 0x10 JUMPI PUSH1 0x0 DUP1 REVERT JUMPDEST POP PUSH1 0x4 CALLDATASIZE LT PUSH2 0x7D JUMPI PUSH1 0x0 CALLDATALOAD PUSH1 0xE0 SHR DUP1 PUSH4 0x9E84E3A1 GT PUSH2 0x5B JUMPI DUP1 PUSH4 0x9E84E3A1 EQ PUSH2 0xFA JUMPI DUP1 PUSH4 0xBBE15627 EQ PUSH2 0x146 JUMPI DUP1 PUSH4 0xD8A8ABFB EQ PUSH2 0x16A JUMPI DUP1 PUSH4 0xF621B159 EQ PUSH2 0x17D JUMPI PUSH1 0x0 DUP1 REVERT JUMPDEST DUP1 PUSH4 0x5CFA06F EQ PUSH2 0x82 JUMPI DUP1 PUSH4 0xF53A470 EQ PUSH2 0xC5 JUMPI DUP1 PUSH4 0x5587A20E EQ PUSH2 0xE5 JUMPI JUMPDEST PUSH1 0x0 DUP1 REVERT JUMPDEST PUSH2 0xB0 PUSH2 0x90 CALLDATASIZE PUSH1 0x4 PUSH2 0xFEB JUMP JUMPDEST PUSH1 0x1 PUSH1 0x1 PUSH1 0xA0 SHL SUB AND PUSH1 0x0 SWAP1 DUP2 MSTORE PUSH1 0x20 DUP2 SWAP1 MSTORE PUSH1 0x40 SWAP1 KECCAK256 PUSH1 0x3 ADD SLOAD ISZERO ISZERO SWAP1 JUMP JUMPDEST PUSH1 0x40 MLOAD SWAP1 ISZERO ISZERO DUP2 MSTORE PUSH1 0x20 ADD JUMPDEST PUSH1 0x40 MLOAD DUP1 SWAP2 SUB SWAP1 RETURN JUMPDEST PUSH2 0xD8 PUSH2 0xD3 CALLDATASIZE PUSH1 0x4 PUSH2 0xFEB JUMP JUMPDEST PUSH2 0x19D JUMP JUMPDEST PUSH1 0x40 MLOAD PUSH2 0xBC SWAP2 SWAP1 PUSH2 0x106B JUMP JUMPDEST PUSH2 0xF8 PUSH2 0xF3 CALLDATASIZE PUSH1 0x4 PUSH2 0x1106 JUMP JUMPDEST PUSH2 0x2B0 JUMP JUMPDEST STOP JUMPDEST PUSH2 0x12E PUSH2 0x108 CALLDATASIZE PUSH1 0x4 PUSH2 0x11C0 JUMP JUMPDEST DUP1 MLOAD PUSH1 0x20 DUP2 DUP4 ADD DUP2 ADD DUP1 MLOAD PUSH1 0x1 DUP3 MSTORE SWAP3 DUP3 ADD SWAP2 SWAP1 SWAP4 ADD KECCAK256 SWAP2 MSTORE SLOAD PUSH1 0x1 PUSH1 0x1 PUSH1 0xA0 SHL SUB AND DUP2 JUMP JUMPDEST PUSH1 0x40 MLOAD PUSH1 0x1 PUSH1 0x1 PUSH1 0xA0 SHL SUB SWAP1 SWAP2 AND DUP2 MSTORE PUSH1 0x20 ADD PUSH2 0xBC JUMP JUMPDEST PUSH2 0x159 PUSH2 0x154 CALLDATASIZE PUSH1 0x4 PUSH2 0xFEB JUMP JUMPDEST PUSH2 0x83A JUMP JUMPDEST PUSH1 0x40 MLOAD PUSH2 0xBC SWAP6 SWAP5 SWAP4 SWAP3 SWAP2 SWAP1 PUSH2 0x1271 JUMP JUMPDEST PUSH2 0x12E PUSH2 0x178 CALLDATASIZE PUSH1 0x4 PUSH2 0x12A8 JUMP JUMPDEST PUSH2 0x8F5 JUMP JUMPDEST PUSH2 0x190 PUSH2 0x18B CALLDATASIZE PUSH1 0x4 PUSH2 0x1314 JUMP JUMPDEST PUSH2 0xA14 JUMP JUMPDEST PUSH1 0x40 MLOAD PUSH2 0xBC SWAP2 SWAP1 PUSH2 0x138E JUMP JUMPDEST PUSH1 0x40 DUP1 MLOAD PUSH1 0xA0 DUP2 ADD DUP3 MSTORE PUSH1 0x60 DUP1 DUP3 MSTORE PUSH1 0x0 PUSH1 0x20 DUP4 ADD DUP2 SWAP1 MSTORE SWAP3 DUP3 ADD DUP4 SWAP1 MSTORE DUP2 ADD DUP3 SWAP1 MSTORE PUSH1 0x80 DUP2 ADD SWAP2 SWAP1 SWAP2 MSTORE PUSH1 0x1 PUSH1 0x1 PUSH1 0xA0 SHL SUB DUP3 AND PUSH1 0x0 SWAP1 DUP2 MSTORE PUSH1 0x20 DUP2 SWAP1 MSTORE PUSH1 0x40 SWAP1 DUP2 SWAP1 KECCAK256 DUP2 MLOAD PUSH1 0xA0 DUP2 ADD SWAP1 SWAP3 MSTORE DUP1 SLOAD DUP3 SWAP1 DUP3 SWAP1 PUSH2 0x1FA SWAP1 PUSH2 0x13A1 JUMP JUMPDEST DUP1 PUSH1 0x1F ADD PUSH1 0x20 DUP1 SWAP2 DIV MUL PUSH1 0x20 ADD PUSH1 0x40 MLOAD SWAP1 DUP2 ADD PUSH1 0x40 MSTORE DUP1 SWAP3 SWAP2 SWAP1 DUP2 DUP2 MSTORE PUSH1 0x20 ADD DUP3 DUP1 SLOAD PUSH2 0x226 SWAP1 PUSH2 0x13A1 JUMP JUMPDEST DUP1 ISZERO PUSH2 0x273 JUMPI DUP1 PUSH1 0x1F LT PUSH2 0x248 JUMPI PUSH2 0x100 DUP1 DUP4 SLOAD DIV MUL DUP4 MSTORE SWAP2 PUSH1 0x20 ADD SWAP2 PUSH2 0x273 JUMP JUMPDEST DUP3 ADD SWAP2 SWAP1 PUSH1 0x0 MSTORE PUSH1 0x20 PUSH1 0x0 KECCAK256 SWAP1 JUMPDEST DUP2 SLOAD DUP2 MSTORE SWAP1 PUSH1 0x1 ADD SWAP1 PUSH1 0x20 ADD DUP1 DUP4 GT PUSH2 0x256 JUMPI DUP3 SWAP1 SUB PUSH1 0x1F AND DUP3 ADD SWAP2 JUMPDEST POP POP POP SWAP2 DUP4 MSTORE POP POP PUSH1 0x1 DUP3 ADD SLOAD PUSH1 0x20 DUP3 ADD MSTORE PUSH1 0x2 DUP3 ADD SLOAD PUSH1 0xFF AND ISZERO ISZERO PUSH1 0x40 DUP3 ADD MSTORE PUSH1 0x3 DUP3 ADD SLOAD PUSH1 0x60 DUP3 ADD MSTORE PUSH1 0x4 SWAP1 SWAP2 ADD SLOAD PUSH1 0x80 SWAP1 SWAP2 ADD MSTORE SWAP3 SWAP2 POP POP JUMP JUMPDEST PUSH1 0x40 DUP1 MLOAD PUSH1 0x60 DUP1 DUP3 MSTORE PUSH1 0x19 SWAP1 DUP3 ADD MSTORE PUSH32 0x5374617274696E672070726F66696C65206372656174696F6E00000000000000 PUSH1 0x80 DUP3 ADD MSTORE PUSH1 0x20 DUP2 ADD DUP8 SWAP1 MSTORE CALLER DUP2 DUP4 ADD MSTORE SWAP1 MLOAD PUSH1 0x0 DUP1 MLOAD PUSH1 0x20 PUSH2 0x18A6 DUP4 CODECOPY DUP2 MLOAD SWAP2 MSTORE SWAP2 DUP2 SWAP1 SUB PUSH1 0xA0 ADD SWAP1 LOG1 CALLER PUSH1 0x0 SWAP1 DUP2 MSTORE PUSH1 0x20 DUP2 SWAP1 MSTORE PUSH1 0x40 SWAP1 KECCAK256 PUSH1 0x3 ADD SLOAD ISZERO PUSH2 0x36C JUMPI PUSH1 0x0 DUP1 MLOAD PUSH1 0x20 PUSH2 0x18A6 DUP4 CODECOPY DUP2 MLOAD SWAP2 MSTORE PUSH1 0x0 CALLER PUSH1 0x40 MLOAD PUSH2 0x343 SWAP3 SWAP2 SWAP1 PUSH2 0x13DB JUMP JUMPDEST PUSH1 0x40 MLOAD DUP1 SWAP2 SUB SWAP1 LOG1 PUSH1 0x40 MLOAD PUSH3 0x461BCD PUSH1 0xE5 SHL DUP2 MSTORE PUSH1 0x4 ADD PUSH2 0x363 SWAP1 PUSH2 0x142F JUMP JUMPDEST PUSH1 0x40 MLOAD DUP1 SWAP2 SUB SWAP1 REVERT JUMPDEST PUSH1 0x0 PUSH1 0x1 PUSH1 0x1 PUSH1 0xA0 SHL SUB AND PUSH1 0x1 DUP6 DUP6 PUSH1 0x40 MLOAD PUSH2 0x389 SWAP3 SWAP2 SWAP1 PUSH2 0x146B JUMP JUMPDEST SWAP1 DUP2 MSTORE PUSH1 0x40 MLOAD SWAP1 DUP2 SWAP1 SUB PUSH1 0x20 ADD SWAP1 KECCAK256 SLOAD PUSH1 0x1 PUSH1 0x1 PUSH1 0xA0 SHL SUB AND EQ PUSH2 0x3E7 JUMPI PUSH1 0x0 DUP1 MLOAD PUSH1 0x20 PUSH2 0x18A6 DUP4 CODECOPY DUP2 MLOAD SWAP2 MSTORE PUSH1 0x0 CALLER PUSH1 0x40 MLOAD PUSH2 0x3C7 SWAP3 SWAP2 SWAP1 PUSH2 0x147B JUMP JUMPDEST PUSH1 0x40 MLOAD DUP1 SWAP2 SUB SWAP1 LOG1 PUSH1 0x40 MLOAD PUSH3 0x461BCD PUSH1 0xE5 SHL DUP2 MSTORE PUSH1 0x4 ADD PUSH2 0x363 SWAP1 PUSH2 0x14A9 JUMP JUMPDEST PUSH1 0x0 DUP8 DUP8 PUSH2 0x3F4 DUP9 PUSH2 0xA5B JUMP JUMPDEST DUP8 DUP8 PUSH2 0x3FF CALLER PUSH2 0xC28 JUMP JUMPDEST PUSH1 0x40 MLOAD PUSH1 0x20 ADD PUSH2 0x414 SWAP7 SWAP6 SWAP5 SWAP4 SWAP3 SWAP2 SWAP1 PUSH2 0x14D7 JUMP JUMPDEST PUSH1 0x40 MLOAD PUSH1 0x20 DUP2 DUP4 SUB SUB DUP2 MSTORE SWAP1 PUSH1 0x40 MSTORE SWAP1 POP PUSH32 0x2CA7EA951DB3BC93C3C659C7DDF08261B1B1153E0685C16B88444C6235865C53 DUP2 PUSH1 0x40 MLOAD PUSH2 0x454 SWAP2 SWAP1 PUSH2 0x138E JUMP JUMPDEST PUSH1 0x40 MLOAD DUP1 SWAP2 SUB SWAP1 LOG1 PUSH1 0x0 DUP2 PUSH1 0x40 MLOAD PUSH1 0x20 ADD PUSH2 0x46F SWAP2 SWAP1 PUSH2 0x1557 JUMP JUMPDEST PUSH1 0x40 DUP1 MLOAD PUSH1 0x1F NOT DUP2 DUP5 SUB ADD DUP2 MSTORE SWAP1 DUP3 SWAP1 MSTORE DUP1 MLOAD PUSH1 0x20 SWAP2 DUP3 ADD KECCAK256 DUP1 DUP4 MSTORE SWAP3 POP PUSH32 0xD6BB8E17062DC41668755C8F977E71BCBAD0E687E1328BC6247A4C90F658BC24 SWAP2 ADD PUSH1 0x40 MLOAD DUP1 SWAP2 SUB SWAP1 LOG1 PUSH1 0x0 PUSH2 0x4C4 DUP4 MLOAD PUSH2 0xDF8 JUMP JUMPDEST DUP4 PUSH1 0x40 MLOAD PUSH1 0x20 ADD PUSH2 0x4D6 SWAP3 SWAP2 SWAP1 PUSH2 0x1573 JUMP JUMPDEST PUSH1 0x40 DUP1 MLOAD PUSH1 0x1F NOT DUP2 DUP5 SUB ADD DUP2 MSTORE SWAP1 DUP3 SWAP1 MSTORE DUP1 MLOAD PUSH1 0x20 SWAP2 DUP3 ADD KECCAK256 DUP1 DUP4 MSTORE SWAP3 POP PUSH32 0xD6BB8E17062DC41668755C8F977E71BCBAD0E687E1328BC6247A4C90F658BC24 SWAP2 ADD PUSH1 0x40 MLOAD DUP1 SWAP2 SUB SWAP1 LOG1 PUSH1 0x0 DUP1 PUSH1 0x0 PUSH2 0x563 DUP9 DUP9 DUP1 DUP1 PUSH1 0x1F ADD PUSH1 0x20 DUP1 SWAP2 DIV MUL PUSH1 0x20 ADD PUSH1 0x40 MLOAD SWAP1 DUP2 ADD PUSH1 0x40 MSTORE DUP1 SWAP4 SWAP3 SWAP2 SWAP1 DUP2 DUP2 MSTORE PUSH1 0x20 ADD DUP4 DUP4 DUP1 DUP3 DUP5 CALLDATACOPY PUSH1 0x0 SWAP3 ADD SWAP2 SWAP1 SWAP2 MSTORE POP PUSH2 0xF01 SWAP3 POP POP POP JUMP JUMPDEST PUSH1 0x40 DUP1 MLOAD DUP5 DUP2 MSTORE PUSH1 0x20 DUP2 ADD DUP5 SWAP1 MSTORE PUSH1 0xFF DUP4 AND DUP2 DUP4 ADD MSTORE PUSH1 0x0 PUSH1 0x60 DUP3 ADD MSTORE SWAP1 MLOAD SWAP4 SWAP7 POP SWAP2 SWAP5 POP SWAP3 POP PUSH32 0xF5ECB6508A5740142DA47B075668676982F3C32D310234BCA55E44E7948F62AF SWAP2 SWAP1 DUP2 SWAP1 SUB PUSH1 0x80 ADD SWAP1 LOG1 PUSH1 0x40 DUP1 MLOAD PUSH1 0x0 DUP1 DUP3 MSTORE PUSH1 0x20 DUP3 ADD DUP1 DUP5 MSTORE DUP8 SWAP1 MSTORE PUSH1 0xFF DUP5 AND SWAP3 DUP3 ADD SWAP3 SWAP1 SWAP3 MSTORE PUSH1 0x60 DUP2 ADD DUP6 SWAP1 MSTORE PUSH1 0x80 DUP2 ADD DUP5 SWAP1 MSTORE PUSH1 0x1 SWAP1 PUSH1 0xA0 ADD PUSH1 0x20 PUSH1 0x40 MLOAD PUSH1 0x20 DUP2 SUB SWAP1 DUP1 DUP5 SUB SWAP1 DUP6 GAS STATICCALL ISZERO DUP1 ISZERO PUSH2 0x609 JUMPI RETURNDATASIZE PUSH1 0x0 DUP1 RETURNDATACOPY RETURNDATASIZE PUSH1 0x0 REVERT JUMPDEST POP POP PUSH1 0x40 DUP1 MLOAD PUSH1 0x1F NOT DUP2 ADD MLOAD DUP8 DUP3 MSTORE PUSH1 0x20 DUP3 ADD DUP8 SWAP1 MSTORE PUSH1 0xFF DUP7 AND DUP3 DUP5 ADD MSTORE PUSH1 0x1 PUSH1 0x1 PUSH1 0xA0 SHL SUB DUP2 AND PUSH1 0x60 DUP4 ADD MSTORE SWAP2 MLOAD SWAP2 SWAP4 POP PUSH32 0xF5ECB6508A5740142DA47B075668676982F3C32D310234BCA55E44E7948F62AF SWAP3 POP DUP2 SWAP1 SUB PUSH1 0x80 ADD SWAP1 LOG1 PUSH1 0x1 PUSH1 0x1 PUSH1 0xA0 SHL SUB DUP2 AND CALLER EQ PUSH2 0x6B6 JUMPI PUSH1 0x0 DUP1 MLOAD PUSH1 0x20 PUSH2 0x18A6 DUP4 CODECOPY DUP2 MLOAD SWAP2 MSTORE PUSH1 0x0 CALLER PUSH1 0x40 MLOAD PUSH2 0x696 SWAP3 SWAP2 SWAP1 PUSH2 0x15CE JUMP JUMPDEST PUSH1 0x40 MLOAD DUP1 SWAP2 SUB SWAP1 LOG1 PUSH1 0x40 MLOAD PUSH3 0x461BCD PUSH1 0xE5 SHL DUP2 MSTORE PUSH1 0x4 ADD PUSH2 0x363 SWAP1 PUSH2 0x15FF JUMP JUMPDEST PUSH1 0x40 MLOAD DUP1 PUSH1 0xA0 ADD PUSH1 0x40 MSTORE DUP1 DUP16 DUP16 DUP1 DUP1 PUSH1 0x1F ADD PUSH1 0x20 DUP1 SWAP2 DIV MUL PUSH1 0x20 ADD PUSH1 0x40 MLOAD SWAP1 DUP2 ADD PUSH1 0x40 MSTORE DUP1 SWAP4 SWAP3 SWAP2 SWAP1 DUP2 DUP2 MSTORE PUSH1 0x20 ADD DUP4 DUP4 DUP1 DUP3 DUP5 CALLDATACOPY PUSH1 0x0 DUP2 DUP5 ADD MSTORE PUSH1 0x1F NOT PUSH1 0x1F DUP3 ADD AND SWAP1 POP DUP1 DUP4 ADD SWAP3 POP POP POP POP POP POP POP DUP2 MSTORE PUSH1 0x20 ADD DUP14 DUP2 MSTORE PUSH1 0x20 ADD PUSH1 0x0 ISZERO ISZERO DUP2 MSTORE PUSH1 0x20 ADD TIMESTAMP DUP2 MSTORE PUSH1 0x20 ADD PUSH1 0x0 DUP2 MSTORE POP PUSH1 0x0 DUP1 CALLER PUSH1 0x1 PUSH1 0x1 PUSH1 0xA0 SHL SUB AND PUSH1 0x1 PUSH1 0x1 PUSH1 0xA0 SHL SUB AND DUP2 MSTORE PUSH1 0x20 ADD SWAP1 DUP2 MSTORE PUSH1 0x20 ADD PUSH1 0x0 KECCAK256 PUSH1 0x0 DUP3 ADD MLOAD DUP2 PUSH1 0x0 ADD SWAP1 DUP2 PUSH2 0x75E SWAP2 SWAP1 PUSH2 0x167F JUMP JUMPDEST POP PUSH1 0x20 DUP3 ADD MLOAD DUP2 PUSH1 0x1 ADD SSTORE PUSH1 0x40 DUP3 ADD MLOAD DUP2 PUSH1 0x2 ADD PUSH1 0x0 PUSH2 0x100 EXP DUP2 SLOAD DUP2 PUSH1 0xFF MUL NOT AND SWAP1 DUP4 ISZERO ISZERO MUL OR SWAP1 SSTORE POP PUSH1 0x60 DUP3 ADD MLOAD DUP2 PUSH1 0x3 ADD SSTORE PUSH1 0x80 DUP3 ADD MLOAD DUP2 PUSH1 0x4 ADD SSTORE SWAP1 POP POP CALLER PUSH1 0x1 DUP13 DUP13 PUSH1 0x40 MLOAD PUSH2 0x7B3 SWAP3 SWAP2 SWAP1 PUSH2 0x146B JUMP JUMPDEST SWAP1 DUP2 MSTORE PUSH1 0x20 ADD PUSH1 0x40 MLOAD DUP1 SWAP2 SUB SWAP1 KECCAK256 PUSH1 0x0 PUSH2 0x100 EXP DUP2 SLOAD DUP2 PUSH1 0x1 PUSH1 0x1 PUSH1 0xA0 SHL SUB MUL NOT AND SWAP1 DUP4 PUSH1 0x1 PUSH1 0x1 PUSH1 0xA0 SHL SUB AND MUL OR SWAP1 SSTORE POP CALLER PUSH1 0x1 PUSH1 0x1 PUSH1 0xA0 SHL SUB AND PUSH32 0x25DBCCF9F713A2B16ED5D635585B4778D0D7E66B7B631871E668A694131E5FAD DUP16 DUP16 TIMESTAMP PUSH1 0x40 MLOAD PUSH2 0x822 SWAP4 SWAP3 SWAP2 SWAP1 PUSH2 0x173F JUMP JUMPDEST PUSH1 0x40 MLOAD DUP1 SWAP2 SUB SWAP1 LOG2 POP POP POP POP POP POP POP POP POP POP POP POP POP POP JUMP JUMPDEST PUSH1 0x0 PUSH1 0x20 DUP2 SWAP1 MSTORE SWAP1 DUP2 MSTORE PUSH1 0x40 SWAP1 KECCAK256 DUP1 SLOAD DUP2 SWAP1 PUSH2 0x855 SWAP1 PUSH2 0x13A1 JUMP JUMPDEST DUP1 PUSH1 0x1F ADD PUSH1 0x20 DUP1 SWAP2 DIV MUL PUSH1 0x20 ADD PUSH1 0x40 MLOAD SWAP1 DUP2 ADD PUSH1 0x40 MSTORE DUP1 SWAP3 SWAP2 SWAP1 DUP2 DUP2 MSTORE PUSH1 0x20 ADD DUP3 DUP1 SLOAD PUSH2 0x881 SWAP1 PUSH2 0x13A1 JUMP JUMPDEST DUP1 ISZERO PUSH2 0x8CE JUMPI DUP1 PUSH1 0x1F LT PUSH2 0x8A3 JUMPI PUSH2 0x100 DUP1 DUP4 SLOAD DIV MUL DUP4 MSTORE SWAP2 PUSH1 0x20 ADD SWAP2 PUSH2 0x8CE JUMP JUMPDEST DUP3 ADD SWAP2 SWAP1 PUSH1 0x0 MSTORE PUSH1 0x20 PUSH1 0x0 KECCAK256 SWAP1 JUMPDEST DUP2 SLOAD DUP2 MSTORE SWAP1 PUSH1 0x1 ADD SWAP1 PUSH1 0x20 ADD DUP1 DUP4 GT PUSH2 0x8B1 JUMPI DUP3 SWAP1 SUB PUSH1 0x1F AND DUP3 ADD SWAP2 JUMPDEST POP POP POP POP PUSH1 0x1 DUP4 ADD SLOAD PUSH1 0x2 DUP5 ADD SLOAD PUSH1 0x3 DUP6 ADD SLOAD PUSH1 0x4 SWAP1 SWAP6 ADD SLOAD SWAP4 SWAP5 SWAP2 SWAP4 PUSH1 0xFF SWAP1 SWAP2 AND SWAP3 POP DUP6 JUMP JUMPDEST PUSH1 0x0 DUP1 DUP6 DUP6 PUSH1 0x40 MLOAD PUSH1 0x20 ADD PUSH2 0x90B SWAP3 SWAP2 SWAP1 PUSH2 0x146B JUMP JUMPDEST PUSH1 0x40 DUP1 MLOAD PUSH1 0x1F NOT DUP2 DUP5 SUB ADD DUP2 MSTORE SWAP2 SWAP1 MSTORE DUP1 MLOAD PUSH1 0x20 SWAP1 SWAP2 ADD KECCAK256 SWAP1 POP PUSH1 0x0 PUSH2 0x930 DUP7 PUSH2 0xDF8 JUMP JUMPDEST DUP8 DUP8 PUSH1 0x40 MLOAD PUSH1 0x20 ADD PUSH2 0x944 SWAP4 SWAP3 SWAP2 SWAP1 PUSH2 0x1778 JUMP JUMPDEST PUSH1 0x40 MLOAD PUSH1 0x20 DUP2 DUP4 SUB SUB DUP2 MSTORE SWAP1 PUSH1 0x40 MSTORE DUP1 MLOAD SWAP1 PUSH1 0x20 ADD KECCAK256 SWAP1 POP PUSH1 0x0 DUP1 PUSH1 0x0 PUSH2 0x9A0 DUP9 DUP9 DUP1 DUP1 PUSH1 0x1F ADD PUSH1 0x20 DUP1 SWAP2 DIV MUL PUSH1 0x20 ADD PUSH1 0x40 MLOAD SWAP1 DUP2 ADD PUSH1 0x40 MSTORE DUP1 SWAP4 SWAP3 SWAP2 SWAP1 DUP2 DUP2 MSTORE PUSH1 0x20 ADD DUP4 DUP4 DUP1 DUP3 DUP5 CALLDATACOPY PUSH1 0x0 SWAP3 ADD SWAP2 SWAP1 SWAP2 MSTORE POP PUSH2 0xF01 SWAP3 POP POP POP JUMP JUMPDEST PUSH1 0x40 DUP1 MLOAD PUSH1 0x0 DUP2 MSTORE PUSH1 0x20 DUP2 ADD DUP1 DUP4 MSTORE DUP10 SWAP1 MSTORE PUSH1 0xFF DUP4 AND SWAP2 DUP2 ADD SWAP2 SWAP1 SWAP2 MSTORE PUSH1 0x60 DUP2 ADD DUP5 SWAP1 MSTORE PUSH1 0x80 DUP2 ADD DUP4 SWAP1 MSTORE SWAP3 SWAP6 POP SWAP1 SWAP4 POP SWAP2 POP PUSH1 0x1 SWAP1 PUSH1 0xA0 ADD PUSH1 0x20 PUSH1 0x40 MLOAD PUSH1 0x20 DUP2 SUB SWAP1 DUP1 DUP5 SUB SWAP1 DUP6 GAS STATICCALL ISZERO DUP1 ISZERO PUSH2 0x9FB JUMPI RETURNDATASIZE PUSH1 0x0 DUP1 RETURNDATACOPY RETURNDATASIZE PUSH1 0x0 REVERT JUMPDEST POP POP PUSH1 0x40 MLOAD PUSH1 0x1F NOT ADD MLOAD SWAP12 SWAP11 POP POP POP POP POP POP POP POP POP POP POP JUMP JUMPDEST PUSH1 0x60 DUP6 DUP6 PUSH2 0xA21 DUP7 PUSH2 0xA5B JUMP JUMPDEST DUP6 DUP6 PUSH2 0xA2C CALLER PUSH2 0xC28 JUMP JUMPDEST PUSH1 0x40 MLOAD PUSH1 0x20 ADD PUSH2 0xA41 SWAP7 SWAP6 SWAP5 SWAP4 SWAP3 SWAP2 SWAP1 PUSH2 0x14D7 JUMP JUMPDEST PUSH1 0x40 MLOAD PUSH1 0x20 DUP2 DUP4 SUB SUB DUP2 MSTORE SWAP1 PUSH1 0x40 MSTORE SWAP1 POP SWAP6 SWAP5 POP POP POP POP POP JUMP JUMPDEST PUSH1 0x40 DUP1 MLOAD DUP1 DUP3 ADD DUP3 MSTORE PUSH1 0x10 DUP2 MSTORE PUSH16 0x181899199A1A9B1B9C1CB0B131B232B3 PUSH1 0x81 SHL PUSH1 0x20 DUP3 ADD MSTORE DUP2 MLOAD PUSH1 0x42 DUP1 DUP3 MSTORE PUSH1 0x80 DUP3 ADD SWAP1 SWAP4 MSTORE PUSH1 0x60 SWAP3 PUSH1 0x0 SWAP2 SWAP1 PUSH1 0x20 DUP3 ADD DUP2 DUP1 CALLDATASIZE DUP4 CALLDATACOPY ADD SWAP1 POP POP SWAP1 POP PUSH1 0x3 PUSH1 0xFC SHL DUP2 PUSH1 0x0 DUP2 MLOAD DUP2 LT PUSH2 0xABD JUMPI PUSH2 0xABD PUSH2 0x17CC JUMP JUMPDEST PUSH1 0x20 ADD ADD SWAP1 PUSH1 0x1 PUSH1 0x1 PUSH1 0xF8 SHL SUB NOT AND SWAP1 DUP2 PUSH1 0x0 BYTE SWAP1 MSTORE8 POP PUSH1 0xF PUSH1 0xFB SHL DUP2 PUSH1 0x1 DUP2 MLOAD DUP2 LT PUSH2 0xAEC JUMPI PUSH2 0xAEC PUSH2 0x17CC JUMP JUMPDEST PUSH1 0x20 ADD ADD SWAP1 PUSH1 0x1 PUSH1 0x1 PUSH1 0xF8 SHL SUB NOT AND SWAP1 DUP2 PUSH1 0x0 BYTE SWAP1 MSTORE8 POP PUSH1 0x0 JUMPDEST PUSH1 0x20 DUP2 LT ISZERO PUSH2 0xC20 JUMPI DUP3 PUSH1 0x4 DUP7 DUP4 PUSH1 0x20 DUP2 LT PUSH2 0xB24 JUMPI PUSH2 0xB24 PUSH2 0x17CC JUMP JUMPDEST BYTE PUSH1 0xF8 SHL PUSH1 0x1 PUSH1 0x1 PUSH1 0xF8 SHL SUB NOT AND SWAP1 SHR PUSH1 0xF8 SHR PUSH1 0xFF AND DUP2 MLOAD DUP2 LT PUSH2 0xB4A JUMPI PUSH2 0xB4A PUSH2 0x17CC JUMP JUMPDEST ADD PUSH1 0x20 ADD MLOAD PUSH1 0x1 PUSH1 0x1 PUSH1 0xF8 SHL SUB NOT AND DUP3 PUSH2 0xB65 DUP4 PUSH1 0x2 PUSH2 0x17F8 JUMP JUMPDEST PUSH2 0xB70 SWAP1 PUSH1 0x2 PUSH2 0x180F JUMP JUMPDEST DUP2 MLOAD DUP2 LT PUSH2 0xB80 JUMPI PUSH2 0xB80 PUSH2 0x17CC JUMP JUMPDEST PUSH1 0x20 ADD ADD SWAP1 PUSH1 0x1 PUSH1 0x1 PUSH1 0xF8 SHL SUB NOT AND SWAP1 DUP2 PUSH1 0x0 BYTE SWAP1 MSTORE8 POP DUP3 DUP6 DUP3 PUSH1 0x20 DUP2 LT PUSH2 0xBAA JUMPI PUSH2 0xBAA PUSH2 0x17CC JUMP JUMPDEST DUP3 MLOAD SWAP2 SWAP1 BYTE PUSH1 0xF AND SWAP1 DUP2 LT PUSH2 0xBC1 JUMPI PUSH2 0xBC1 PUSH2 0x17CC JUMP JUMPDEST ADD PUSH1 0x20 ADD MLOAD PUSH1 0x1 PUSH1 0x1 PUSH1 0xF8 SHL SUB NOT AND DUP3 PUSH2 0xBDC DUP4 PUSH1 0x2 PUSH2 0x17F8 JUMP JUMPDEST PUSH2 0xBE7 SWAP1 PUSH1 0x3 PUSH2 0x180F JUMP JUMPDEST DUP2 MLOAD DUP2 LT PUSH2 0xBF7 JUMPI PUSH2 0xBF7 PUSH2 0x17CC JUMP JUMPDEST PUSH1 0x20 ADD ADD SWAP1 PUSH1 0x1 PUSH1 0x1 PUSH1 0xF8 SHL SUB NOT AND SWAP1 DUP2 PUSH1 0x0 BYTE SWAP1 MSTORE8 POP DUP1 PUSH2 0xC18 DUP2 PUSH2 0x1822 JUMP JUMPDEST SWAP2 POP POP PUSH2 0xB06 JUMP JUMPDEST POP SWAP4 SWAP3 POP POP POP JUMP JUMPDEST PUSH1 0x40 DUP1 MLOAD DUP1 DUP3 ADD DUP3 MSTORE PUSH1 0x10 DUP2 MSTORE PUSH16 0x181899199A1A9B1B9C1CB0B131B232B3 PUSH1 0x81 SHL PUSH1 0x20 DUP3 ADD MSTORE DUP2 MLOAD PUSH1 0x2A DUP1 DUP3 MSTORE PUSH1 0x60 DUP3 DUP2 ADD SWAP1 SWAP5 MSTORE DUP5 DUP5 SHL SWAP3 SWAP2 PUSH1 0x0 SWAP2 PUSH1 0x20 DUP3 ADD DUP2 DUP1 CALLDATASIZE DUP4 CALLDATACOPY ADD SWAP1 POP POP SWAP1 POP PUSH1 0x3 PUSH1 0xFC SHL DUP2 PUSH1 0x0 DUP2 MLOAD DUP2 LT PUSH2 0xC8C JUMPI PUSH2 0xC8C PUSH2 0x17CC JUMP JUMPDEST PUSH1 0x20 ADD ADD SWAP1 PUSH1 0x1 PUSH1 0x1 PUSH1 0xF8 SHL SUB NOT AND SWAP1 DUP2 PUSH1 0x0 BYTE SWAP1 MSTORE8 POP PUSH1 0xF PUSH1 0xFB SHL DUP2 PUSH1 0x1 DUP2 MLOAD DUP2 LT PUSH2 0xCBB JUMPI PUSH2 0xCBB PUSH2 0x17CC JUMP JUMPDEST PUSH1 0x20 ADD ADD SWAP1 PUSH1 0x1 PUSH1 0x1 PUSH1 0xF8 SHL SUB NOT AND SWAP1 DUP2 PUSH1 0x0 BYTE SWAP1 MSTORE8 POP PUSH1 0x0 JUMPDEST PUSH1 0x14 DUP2 LT ISZERO PUSH2 0xDEF JUMPI DUP3 PUSH1 0x4 DUP6 DUP4 PUSH1 0x14 DUP2 LT PUSH2 0xCF3 JUMPI PUSH2 0xCF3 PUSH2 0x17CC JUMP JUMPDEST BYTE PUSH1 0xF8 SHL PUSH1 0x1 PUSH1 0x1 PUSH1 0xF8 SHL SUB NOT AND SWAP1 SHR PUSH1 0xF8 SHR PUSH1 0xFF AND DUP2 MLOAD DUP2 LT PUSH2 0xD19 JUMPI PUSH2 0xD19 PUSH2 0x17CC JUMP JUMPDEST ADD PUSH1 0x20 ADD MLOAD PUSH1 0x1 PUSH1 0x1 PUSH1 0xF8 SHL SUB NOT AND DUP3 PUSH2 0xD34 DUP4 PUSH1 0x2 PUSH2 0x17F8 JUMP JUMPDEST PUSH2 0xD3F SWAP1 PUSH1 0x2 PUSH2 0x180F JUMP JUMPDEST DUP2 MLOAD DUP2 LT PUSH2 0xD4F JUMPI PUSH2 0xD4F PUSH2 0x17CC JUMP JUMPDEST PUSH1 0x20 ADD ADD SWAP1 PUSH1 0x1 PUSH1 0x1 PUSH1 0xF8 SHL SUB NOT AND SWAP1 DUP2 PUSH1 0x0 BYTE SWAP1 MSTORE8 POP DUP3 DUP5 DUP3 PUSH1 0x14 DUP2 LT PUSH2 0xD79 JUMPI PUSH2 0xD79 PUSH2 0x17CC JUMP JUMPDEST DUP3 MLOAD SWAP2 SWAP1 BYTE PUSH1 0xF AND SWAP1 DUP2 LT PUSH2 0xD90 JUMPI PUSH2 0xD90 PUSH2 0x17CC JUMP JUMPDEST ADD PUSH1 0x20 ADD MLOAD PUSH1 0x1 PUSH1 0x1 PUSH1 0xF8 SHL SUB NOT AND DUP3 PUSH2 0xDAB DUP4 PUSH1 0x2 PUSH2 0x17F8 JUMP JUMPDEST PUSH2 0xDB6 SWAP1 PUSH1 0x3 PUSH2 0x180F JUMP JUMPDEST DUP2 MLOAD DUP2 LT PUSH2 0xDC6 JUMPI PUSH2 0xDC6 PUSH2 0x17CC JUMP JUMPDEST PUSH1 0x20 ADD ADD SWAP1 PUSH1 0x1 PUSH1 0x1 PUSH1 0xF8 SHL SUB NOT AND SWAP1 DUP2 PUSH1 0x0 BYTE SWAP1 MSTORE8 POP DUP1 PUSH2 0xDE7 DUP2 PUSH2 0x1822 JUMP JUMPDEST SWAP2 POP POP PUSH2 0xCD5 JUMP JUMPDEST POP SWAP5 SWAP4 POP POP POP POP JUMP JUMPDEST PUSH1 0x60 DUP2 PUSH1 0x0 SUB PUSH2 0xE1F JUMPI POP POP PUSH1 0x40 DUP1 MLOAD DUP1 DUP3 ADD SWAP1 SWAP2 MSTORE PUSH1 0x1 DUP2 MSTORE PUSH1 0x3 PUSH1 0xFC SHL PUSH1 0x20 DUP3 ADD MSTORE SWAP1 JUMP JUMPDEST DUP2 PUSH1 0x0 JUMPDEST DUP2 ISZERO PUSH2 0xE49 JUMPI DUP1 PUSH2 0xE33 DUP2 PUSH2 0x1822 JUMP JUMPDEST SWAP2 POP PUSH2 0xE42 SWAP1 POP PUSH1 0xA DUP4 PUSH2 0x1851 JUMP JUMPDEST SWAP2 POP PUSH2 0xE23 JUMP JUMPDEST PUSH1 0x0 DUP2 PUSH8 0xFFFFFFFFFFFFFFFF DUP2 GT ISZERO PUSH2 0xE64 JUMPI PUSH2 0xE64 PUSH2 0x11AA JUMP JUMPDEST PUSH1 0x40 MLOAD SWAP1 DUP1 DUP3 MSTORE DUP1 PUSH1 0x1F ADD PUSH1 0x1F NOT AND PUSH1 0x20 ADD DUP3 ADD PUSH1 0x40 MSTORE DUP1 ISZERO PUSH2 0xE8E JUMPI PUSH1 0x20 DUP3 ADD DUP2 DUP1 CALLDATASIZE DUP4 CALLDATACOPY ADD SWAP1 POP JUMPDEST POP SWAP1 POP JUMPDEST DUP5 ISZERO PUSH2 0xEF9 JUMPI PUSH2 0xEA3 PUSH1 0x1 DUP4 PUSH2 0x1865 JUMP JUMPDEST SWAP2 POP PUSH2 0xEB0 PUSH1 0xA DUP7 PUSH2 0x1878 JUMP JUMPDEST PUSH2 0xEBB SWAP1 PUSH1 0x30 PUSH2 0x180F JUMP JUMPDEST PUSH1 0xF8 SHL DUP2 DUP4 DUP2 MLOAD DUP2 LT PUSH2 0xED0 JUMPI PUSH2 0xED0 PUSH2 0x17CC JUMP JUMPDEST PUSH1 0x20 ADD ADD SWAP1 PUSH1 0x1 PUSH1 0x1 PUSH1 0xF8 SHL SUB NOT AND SWAP1 DUP2 PUSH1 0x0 BYTE SWAP1 MSTORE8 POP PUSH2 0xEF2 PUSH1 0xA DUP7 PUSH2 0x1851 JUMP JUMPDEST SWAP5 POP PUSH2 0xE92 JUMP JUMPDEST SWAP5 SWAP4 POP POP POP POP JUMP JUMPDEST PUSH1 0x0 DUP1 PUSH1 0x0 DUP4 MLOAD PUSH1 0x41 EQ PUSH2 0xF57 JUMPI PUSH1 0x40 MLOAD PUSH3 0x461BCD PUSH1 0xE5 SHL DUP2 MSTORE PUSH1 0x20 PUSH1 0x4 DUP3 ADD MSTORE PUSH1 0x18 PUSH1 0x24 DUP3 ADD MSTORE PUSH32 0x496E76616C6964207369676E6174757265206C656E6774680000000000000000 PUSH1 0x44 DUP3 ADD MSTORE PUSH1 0x64 ADD PUSH2 0x363 JUMP JUMPDEST POP POP POP PUSH1 0x20 DUP2 ADD MLOAD PUSH1 0x40 DUP3 ADD MLOAD PUSH1 0x60 DUP4 ADD MLOAD PUSH1 0x0 BYTE PUSH1 0x1B DUP2 LT ISZERO PUSH2 0xF83 JUMPI PUSH2 0xF80 PUSH1 0x1B DUP3 PUSH2 0x188C JUMP JUMPDEST SWAP1 POP JUMPDEST DUP1 PUSH1 0xFF AND PUSH1 0x1B EQ DUP1 PUSH2 0xF98 JUMPI POP DUP1 PUSH1 0xFF AND PUSH1 0x1C EQ JUMPDEST PUSH2 0xFE4 JUMPI PUSH1 0x40 MLOAD PUSH3 0x461BCD PUSH1 0xE5 SHL DUP2 MSTORE PUSH1 0x20 PUSH1 0x4 DUP3 ADD MSTORE PUSH1 0x19 PUSH1 0x24 DUP3 ADD MSTORE PUSH32 0x496E76616C6964207369676E617475726520762076616C756500000000000000 PUSH1 0x44 DUP3 ADD MSTORE PUSH1 0x64 ADD PUSH2 0x363 JUMP JUMPDEST SWAP2 SWAP4 SWAP1 SWAP3 POP JUMP JUMPDEST PUSH1 0x0 PUSH1 0x20 DUP3 DUP5 SUB SLT ISZERO PUSH2 0xFFD JUMPI PUSH1 0x0 DUP1 REVERT JUMPDEST DUP2 CALLDATALOAD PUSH1 0x1 PUSH1 0x1 PUSH1 0xA0 SHL SUB DUP2 AND DUP2 EQ PUSH2 0x1014 JUMPI PUSH1 0x0 DUP1 REVERT JUMPDEST SWAP4 SWAP3 POP POP POP JUMP JUMPDEST PUSH1 0x0 JUMPDEST DUP4 DUP2 LT ISZERO PUSH2 0x1036 JUMPI DUP2 DUP2 ADD MLOAD DUP4 DUP3 ADD MSTORE PUSH1 0x20 ADD PUSH2 0x101E JUMP JUMPDEST POP POP PUSH1 0x0 SWAP2 ADD MSTORE JUMP JUMPDEST PUSH1 0x0 DUP2 MLOAD DUP1 DUP5 MSTORE PUSH2 0x1057 DUP2 PUSH1 0x20 DUP7 ADD PUSH1 0x20 DUP7 ADD PUSH2 0x101B JUMP JUMPDEST PUSH1 0x1F ADD PUSH1 0x1F NOT AND SWAP3 SWAP1 SWAP3 ADD PUSH1 0x20 ADD SWAP3 SWAP2 POP POP JUMP JUMPDEST PUSH1 0x20 DUP2 MSTORE PUSH1 0x0 DUP3 MLOAD PUSH1 0xA0 PUSH1 0x20 DUP5 ADD MSTORE PUSH2 0x1087 PUSH1 0xC0 DUP5 ADD DUP3 PUSH2 0x103F JUMP JUMPDEST SWAP1 POP PUSH1 0x20 DUP5 ADD MLOAD PUSH1 0x40 DUP5 ADD MSTORE PUSH1 0x40 DUP5 ADD MLOAD ISZERO ISZERO PUSH1 0x60 DUP5 ADD MSTORE PUSH1 0x60 DUP5 ADD MLOAD PUSH1 0x80 DUP5 ADD MSTORE PUSH1 0x80 DUP5 ADD MLOAD PUSH1 0xA0 DUP5 ADD MSTORE DUP1 SWAP2 POP POP SWAP3 SWAP2 POP POP JUMP JUMPDEST PUSH1 0x0 DUP1 DUP4 PUSH1 0x1F DUP5 ADD SLT PUSH2 0x10CF JUMPI PUSH1 0x0 DUP1 REVERT JUMPDEST POP DUP2 CALLDATALOAD PUSH8 0xFFFFFFFFFFFFFFFF DUP2 GT ISZERO PUSH2 0x10E7 JUMPI PUSH1 0x0 DUP1 REVERT JUMPDEST PUSH1 0x20 DUP4 ADD SWAP2 POP DUP4 PUSH1 0x20 DUP3 DUP6 ADD ADD GT ISZERO PUSH2 0x10FF JUMPI PUSH1 0x0 DUP1 REVERT JUMPDEST SWAP3 POP SWAP3 SWAP1 POP JUMP JUMPDEST PUSH1 0x0 DUP1 PUSH1 0x0 DUP1 PUSH1 0x0 DUP1 PUSH1 0x0 PUSH1 0x80 DUP9 DUP11 SUB SLT ISZERO PUSH2 0x1121 JUMPI PUSH1 0x0 DUP1 REVERT JUMPDEST DUP8 CALLDATALOAD PUSH8 0xFFFFFFFFFFFFFFFF DUP1 DUP3 GT ISZERO PUSH2 0x1139 JUMPI PUSH1 0x0 DUP1 REVERT JUMPDEST PUSH2 0x1145 DUP12 DUP4 DUP13 ADD PUSH2 0x10BD JUMP JUMPDEST SWAP1 SWAP10 POP SWAP8 POP PUSH1 0x20 DUP11 ADD CALLDATALOAD SWAP7 POP PUSH1 0x40 DUP11 ADD CALLDATALOAD SWAP2 POP DUP1 DUP3 GT ISZERO PUSH2 0x1165 JUMPI PUSH1 0x0 DUP1 REVERT JUMPDEST PUSH2 0x1171 DUP12 DUP4 DUP13 ADD PUSH2 0x10BD JUMP JUMPDEST SWAP1 SWAP7 POP SWAP5 POP PUSH1 0x60 DUP11 ADD CALLDATALOAD SWAP2 POP DUP1 DUP3 GT ISZERO PUSH2 0x118A JUMPI PUSH1 0x0 DUP1 REVERT JUMPDEST POP PUSH2 0x1197 DUP11 DUP3 DUP12 ADD PUSH2 0x10BD JUMP JUMPDEST SWAP9 SWAP12 SWAP8 SWAP11 POP SWAP6 SWAP9 POP SWAP4 SWAP7 SWAP3 SWAP6 SWAP3 SWAP4 POP POP POP JUMP JUMPDEST PUSH4 0x4E487B71 PUSH1 0xE0 SHL PUSH1 0x0 MSTORE PUSH1 0x41 PUSH1 0x4 MSTORE PUSH1 0x24 PUSH1 0x0 REVERT JUMPDEST PUSH1 0x0 PUSH1 0x20 DUP3 DUP5 SUB SLT ISZERO PUSH2 0x11D2 JUMPI PUSH1 0x0 DUP1 REVERT JUMPDEST DUP2 CALLDATALOAD PUSH8 0xFFFFFFFFFFFFFFFF DUP1 DUP3 GT ISZERO PUSH2 0x11EA JUMPI PUSH1 0x0 DUP1 REVERT JUMPDEST DUP2 DUP5 ADD SWAP2 POP DUP5 PUSH1 0x1F DUP4 ADD SLT PUSH2 0x11FE JUMPI PUSH1 0x0 DUP1 REVERT JUMPDEST DUP2 CALLDATALOAD DUP2 DUP2 GT ISZERO PUSH2 0x1210 JUMPI PUSH2 0x1210 PUSH2 0x11AA JUMP JUMPDEST PUSH1 0x40 MLOAD PUSH1 0x1F DUP3 ADD PUSH1 0x1F NOT SWAP1 DUP2 AND PUSH1 0x3F ADD AND DUP2 ADD SWAP1 DUP4 DUP3 GT DUP2 DUP4 LT OR ISZERO PUSH2 0x1238 JUMPI PUSH2 0x1238 PUSH2 0x11AA JUMP JUMPDEST DUP2 PUSH1 0x40 MSTORE DUP3 DUP2 MSTORE DUP8 PUSH1 0x20 DUP5 DUP8 ADD ADD GT ISZERO PUSH2 0x1251 JUMPI PUSH1 0x0 DUP1 REVERT JUMPDEST DUP3 PUSH1 0x20 DUP7 ADD PUSH1 0x20 DUP4 ADD CALLDATACOPY PUSH1 0x0 SWAP3 DUP2 ADD PUSH1 0x20 ADD SWAP3 SWAP1 SWAP3 MSTORE POP SWAP6 SWAP5 POP POP POP POP POP JUMP JUMPDEST PUSH1 0xA0 DUP2 MSTORE PUSH1 0x0 PUSH2 0x1284 PUSH1 0xA0 DUP4 ADD DUP9 PUSH2 0x103F JUMP JUMPDEST PUSH1 0x20 DUP4 ADD SWAP7 SWAP1 SWAP7 MSTORE POP SWAP3 ISZERO ISZERO PUSH1 0x40 DUP5 ADD MSTORE PUSH1 0x60 DUP4 ADD SWAP2 SWAP1 SWAP2 MSTORE PUSH1 0x80 SWAP1 SWAP2 ADD MSTORE SWAP2 SWAP1 POP JUMP JUMPDEST PUSH1 0x0 DUP1 PUSH1 0x0 DUP1 PUSH1 0x40 DUP6 DUP8 SUB SLT ISZERO PUSH2 0x12BE JUMPI PUSH1 0x0 DUP1 REVERT JUMPDEST DUP5 CALLDATALOAD PUSH8 0xFFFFFFFFFFFFFFFF DUP1 DUP3 GT ISZERO PUSH2 0x12D6 JUMPI PUSH1 0x0 DUP1 REVERT JUMPDEST PUSH2 0x12E2 DUP9 DUP4 DUP10 ADD PUSH2 0x10BD JUMP JUMPDEST SWAP1 SWAP7 POP SWAP5 POP PUSH1 0x20 DUP8 ADD CALLDATALOAD SWAP2 POP DUP1 DUP3 GT ISZERO PUSH2 0x12FB JUMPI PUSH1 0x0 DUP1 REVERT JUMPDEST POP PUSH2 0x1308 DUP8 DUP3 DUP9 ADD PUSH2 0x10BD JUMP JUMPDEST SWAP6 SWAP9 SWAP5 SWAP8 POP SWAP6 POP POP POP POP JUMP JUMPDEST PUSH1 0x0 DUP1 PUSH1 0x0 DUP1 PUSH1 0x0 PUSH1 0x60 DUP7 DUP9 SUB SLT ISZERO PUSH2 0x132C JUMPI PUSH1 0x0 DUP1 REVERT JUMPDEST DUP6 CALLDATALOAD PUSH8 0xFFFFFFFFFFFFFFFF DUP1 DUP3 GT ISZERO PUSH2 0x1344 JUMPI PUSH1 0x0 DUP1 REVERT JUMPDEST PUSH2 0x1350 DUP10 DUP4 DUP11 ADD PUSH2 0x10BD JUMP JUMPDEST SWAP1 SWAP8 POP SWAP6 POP PUSH1 0x20 DUP9 ADD CALLDATALOAD SWAP5 POP PUSH1 0x40 DUP9 ADD CALLDATALOAD SWAP2 POP DUP1 DUP3 GT ISZERO PUSH2 0x1370 JUMPI PUSH1 0x0 DUP1 REVERT JUMPDEST POP PUSH2 0x137D DUP9 DUP3 DUP10 ADD PUSH2 0x10BD JUMP JUMPDEST SWAP7 SWAP10 SWAP6 SWAP9 POP SWAP4 SWAP7 POP SWAP3 SWAP5 SWAP4 SWAP3 POP POP POP JUMP JUMPDEST PUSH1 0x20 DUP2 MSTORE PUSH1 0x0 PUSH2 0x1014 PUSH1 0x20 DUP4 ADD DUP5 PUSH2 0x103F JUMP JUMPDEST PUSH1 0x1 DUP2 DUP2 SHR SWAP1 DUP3 AND DUP1 PUSH2 0x13B5 JUMPI PUSH1 0x7F DUP3 AND SWAP2 POP JUMPDEST PUSH1 0x20 DUP3 LT DUP2 SUB PUSH2 0x13D5 JUMPI PUSH4 0x4E487B71 PUSH1 0xE0 SHL PUSH1 0x0 MSTORE PUSH1 0x22 PUSH1 0x4 MSTORE PUSH1 0x24 PUSH1 0x0 REVERT JUMPDEST POP SWAP2 SWAP1 POP JUMP JUMPDEST PUSH1 0x60 DUP2 MSTORE PUSH1 0x0 PUSH2 0x1411 PUSH1 0x60 DUP4 ADD PUSH1 0x16 DUP2 MSTORE PUSH22 0x50726F66696C6520616C726561647920657869737473 PUSH1 0x50 SHL PUSH1 0x20 DUP3 ADD MSTORE PUSH1 0x40 ADD SWAP1 JUMP JUMPDEST PUSH1 0x20 DUP4 ADD SWAP5 SWAP1 SWAP5 MSTORE POP PUSH1 0x1 PUSH1 0x1 PUSH1 0xA0 SHL SUB SWAP2 SWAP1 SWAP2 AND PUSH1 0x40 SWAP1 SWAP2 ADD MSTORE SWAP1 JUMP JUMPDEST PUSH1 0x20 DUP2 MSTORE PUSH1 0x0 PUSH2 0x1465 PUSH1 0x20 DUP4 ADD PUSH1 0x16 DUP2 MSTORE PUSH22 0x50726F66696C6520616C726561647920657869737473 PUSH1 0x50 SHL PUSH1 0x20 DUP3 ADD MSTORE PUSH1 0x40 ADD SWAP1 JUMP JUMPDEST SWAP3 SWAP2 POP POP JUMP JUMPDEST DUP2 DUP4 DUP3 CALLDATACOPY PUSH1 0x0 SWAP2 ADD SWAP1 DUP2 MSTORE SWAP2 SWAP1 POP JUMP JUMPDEST PUSH1 0x60 DUP2 MSTORE PUSH1 0x0 PUSH2 0x1411 PUSH1 0x60 DUP4 ADD PUSH1 0xE DUP2 MSTORE PUSH14 0x2734B1B5B730B6B2903A30B5B2B7 PUSH1 0x91 SHL PUSH1 0x20 DUP3 ADD MSTORE PUSH1 0x40 ADD SWAP1 JUMP JUMPDEST PUSH1 0x20 DUP2 MSTORE PUSH1 0x0 PUSH2 0x1465 PUSH1 0x20 DUP4 ADD PUSH1 0xE DUP2 MSTORE PUSH14 0x2734B1B5B730B6B2903A30B5B2B7 PUSH1 0x91 SHL PUSH1 0x20 DUP3 ADD MSTORE PUSH1 0x40 ADD SWAP1 JUMP JUMPDEST PUSH17 0x21B932B0BA3290283937B334B63290169 PUSH1 0x7D SHL DUP2 MSTORE DUP6 DUP8 PUSH1 0x11 DUP4 ADD CALLDATACOPY PUSH1 0x0 DUP7 DUP3 ADD PUSH3 0x10169 PUSH1 0xED SHL DUP1 PUSH1 0x11 DUP4 ADD MSTORE DUP8 MLOAD PUSH2 0x151A DUP2 PUSH1 0x14 DUP6 ADD PUSH1 0x20 DUP13 ADD PUSH2 0x101B JUMP JUMPDEST PUSH1 0x14 SWAP3 ADD SWAP2 DUP3 ADD DUP2 SWAP1 MSTORE DUP6 DUP8 PUSH1 0x17 DUP5 ADD CALLDATACOPY PUSH1 0x17 SWAP2 DUP7 ADD SWAP2 DUP3 ADD MSTORE DUP4 MLOAD PUSH2 0x1547 DUP2 PUSH1 0x1A DUP5 ADD PUSH1 0x20 DUP9 ADD PUSH2 0x101B JUMP JUMPDEST ADD PUSH1 0x1A ADD SWAP9 SWAP8 POP POP POP POP POP POP POP POP JUMP JUMPDEST PUSH1 0x0 DUP3 MLOAD PUSH2 0x1569 DUP2 DUP5 PUSH1 0x20 DUP8 ADD PUSH2 0x101B JUMP JUMPDEST SWAP2 SWAP1 SWAP2 ADD SWAP3 SWAP2 POP POP JUMP JUMPDEST PUSH32 0x19457468657265756D205369676E6564204D6573736167653A0A000000000000 DUP2 MSTORE PUSH1 0x0 DUP4 MLOAD PUSH2 0x15AB DUP2 PUSH1 0x1A DUP6 ADD PUSH1 0x20 DUP9 ADD PUSH2 0x101B JUMP JUMPDEST DUP4 MLOAD SWAP1 DUP4 ADD SWAP1 PUSH2 0x15C2 DUP2 PUSH1 0x1A DUP5 ADD PUSH1 0x20 DUP9 ADD PUSH2 0x101B JUMP JUMPDEST ADD PUSH1 0x1A ADD SWAP5 SWAP4 POP POP POP POP JUMP JUMPDEST PUSH1 0x60 DUP2 MSTORE PUSH1 0x0 PUSH2 0x1411 PUSH1 0x60 DUP4 ADD PUSH1 0x11 DUP2 MSTORE PUSH17 0x496E76616C6964207369676E6174757265 PUSH1 0x78 SHL PUSH1 0x20 DUP3 ADD MSTORE PUSH1 0x40 ADD SWAP1 JUMP JUMPDEST PUSH1 0x20 DUP2 MSTORE PUSH1 0x0 PUSH2 0x1465 PUSH1 0x20 DUP4 ADD PUSH1 0x11 DUP2 MSTORE PUSH17 0x496E76616C6964207369676E6174757265 PUSH1 0x78 SHL PUSH1 0x20 DUP3 ADD MSTORE PUSH1 0x40 ADD SWAP1 JUMP JUMPDEST PUSH1 0x1F DUP3 GT ISZERO PUSH2 0x167A JUMPI PUSH1 0x0 DUP2 DUP2 MSTORE PUSH1 0x20 DUP2 KECCAK256 PUSH1 0x1F DUP6 ADD PUSH1 0x5 SHR DUP2 ADD PUSH1 0x20 DUP7 LT ISZERO PUSH2 0x1657 JUMPI POP DUP1 JUMPDEST PUSH1 0x1F DUP6 ADD PUSH1 0x5 SHR DUP3 ADD SWAP2 POP JUMPDEST DUP2 DUP2 LT ISZERO PUSH2 0x1676 JUMPI DUP3 DUP2 SSTORE PUSH1 0x1 ADD PUSH2 0x1663 JUMP JUMPDEST POP POP POP JUMPDEST POP POP POP JUMP JUMPDEST DUP2 MLOAD PUSH8 0xFFFFFFFFFFFFFFFF DUP2 GT ISZERO PUSH2 0x1699 JUMPI PUSH2 0x1699 PUSH2 0x11AA JUMP JUMPDEST PUSH2 0x16AD DUP2 PUSH2 0x16A7 DUP5 SLOAD PUSH2 0x13A1 JUMP JUMPDEST DUP5 PUSH2 0x1630 JUMP JUMPDEST PUSH1 0x20 DUP1 PUSH1 0x1F DUP4 GT PUSH1 0x1 DUP2 EQ PUSH2 0x16E2 JUMPI PUSH1 0x0 DUP5 ISZERO PUSH2 0x16CA JUMPI POP DUP6 DUP4 ADD MLOAD JUMPDEST PUSH1 0x0 NOT PUSH1 0x3 DUP7 SWAP1 SHL SHR NOT AND PUSH1 0x1 DUP6 SWAP1 SHL OR DUP6 SSTORE PUSH2 0x1676 JUMP JUMPDEST PUSH1 0x0 DUP6 DUP2 MSTORE PUSH1 0x20 DUP2 KECCAK256 PUSH1 0x1F NOT DUP7 AND SWAP2 JUMPDEST DUP3 DUP2 LT ISZERO PUSH2 0x1711 JUMPI DUP9 DUP7 ADD MLOAD DUP3 SSTORE SWAP5 DUP5 ADD SWAP5 PUSH1 0x1 SWAP1 SWAP2 ADD SWAP1 DUP5 ADD PUSH2 0x16F2 JUMP JUMPDEST POP DUP6 DUP3 LT ISZERO PUSH2 0x172F JUMPI DUP8 DUP6 ADD MLOAD PUSH1 0x0 NOT PUSH1 0x3 DUP9 SWAP1 SHL PUSH1 0xF8 AND SHR NOT AND DUP2 SSTORE JUMPDEST POP POP POP POP POP PUSH1 0x1 SWAP1 DUP2 SHL ADD SWAP1 SSTORE POP JUMP JUMPDEST PUSH1 0x40 DUP2 MSTORE DUP3 PUSH1 0x40 DUP3 ADD MSTORE DUP3 DUP5 PUSH1 0x60 DUP4 ADD CALLDATACOPY PUSH1 0x0 PUSH1 0x60 DUP5 DUP4 ADD ADD MSTORE PUSH1 0x0 PUSH1 0x60 PUSH1 0x1F NOT PUSH1 0x1F DUP7 ADD AND DUP4 ADD ADD SWAP1 POP DUP3 PUSH1 0x20 DUP4 ADD MSTORE SWAP5 SWAP4 POP POP POP POP JUMP JUMPDEST PUSH32 0x19457468657265756D205369676E6564204D6573736167653A0A000000000000 DUP2 MSTORE PUSH1 0x0 DUP5 MLOAD PUSH2 0x17B0 DUP2 PUSH1 0x1A DUP6 ADD PUSH1 0x20 DUP10 ADD PUSH2 0x101B JUMP JUMPDEST DUP3 ADD DUP4 DUP6 PUSH1 0x1A DUP4 ADD CALLDATACOPY PUSH1 0x0 SWAP4 ADD PUSH1 0x1A ADD SWAP3 DUP4 MSTORE POP SWAP1 SWAP4 SWAP3 POP POP POP JUMP JUMPDEST PUSH4 0x4E487B71 PUSH1 0xE0 SHL PUSH1 0x0 MSTORE PUSH1 0x32 PUSH1 0x4 MSTORE PUSH1 0x24 PUSH1 0x0 REVERT JUMPDEST PUSH4 0x4E487B71 PUSH1 0xE0 SHL PUSH1 0x0 MSTORE PUSH1 0x11 PUSH1 0x4 MSTORE PUSH1 0x24 PUSH1 0x0 REVERT JUMPDEST DUP1 DUP3 MUL DUP2 ISZERO DUP3 DUP3 DIV DUP5 EQ OR PUSH2 0x1465 JUMPI PUSH2 0x1465 PUSH2 0x17E2 JUMP JUMPDEST DUP1 DUP3 ADD DUP1 DUP3 GT ISZERO PUSH2 0x1465 JUMPI PUSH2 0x1465 PUSH2 0x17E2 JUMP JUMPDEST PUSH1 0x0 PUSH1 0x1 DUP3 ADD PUSH2 0x1834 JUMPI PUSH2 0x1834 PUSH2 0x17E2 JUMP JUMPDEST POP PUSH1 0x1 ADD SWAP1 JUMP JUMPDEST PUSH4 0x4E487B71 PUSH1 0xE0 SHL PUSH1 0x0 MSTORE PUSH1 0x12 PUSH1 0x4 MSTORE PUSH1 0x24 PUSH1 0x0 REVERT JUMPDEST PUSH1 0x0 DUP3 PUSH2 0x1860 JUMPI PUSH2 0x1860 PUSH2 0x183B JUMP JUMPDEST POP DIV SWAP1 JUMP JUMPDEST DUP2 DUP2 SUB DUP2 DUP2 GT ISZERO PUSH2 0x1465 JUMPI PUSH2 0x1465 PUSH2 0x17E2 JUMP JUMPDEST PUSH1 0x0 DUP3 PUSH2 0x1887 JUMPI PUSH2 0x1887 PUSH2 0x183B JUMP JUMPDEST POP MOD SWAP1 JUMP JUMPDEST PUSH1 0xFF DUP2 DUP2 AND DUP4 DUP3 AND ADD SWAP1 DUP2 GT ISZERO PUSH2 0x1465 JUMPI PUSH2 0x1465 PUSH2 0x17E2 JUMP INVALID 0x21 SWAP7 PUSH15 0x86DB68246FEB6AB5F064F983A579CF SWAP12 0xE CODECOPY 0x4F SELFBALANCE GT PUSH29 0x1E18ED7B401D5BA2646970667358221220451AC8D71FD803EB1FF9C16D 0xAD 0xD4 0x25 EXP PREVRANDAO 0xA7 0xB0 PUSH18 0x1FEE8970435E89B9B4E5BB3D64736F6C6343 STOP ADDMOD SGT STOP CALLER "},"methodIdentifiers":{"createProfile(string,bytes32,string,bytes)":"5587a20e","getProfile(address)":"0f53a470","nicknameToAddress(string)":"9e84e3a1","profileExists(address)":"05cfa06f","profiles(address)":"bbe15627","testMessage(string,bytes32,string)":"f621b159","testSignatureRecovery(string,bytes)":"d8a8abfb"}}}}}