{
  "_format": "hh-sol-artifact-1",
  "contractName": "UserProfileDebug",
  "sourceName": "contracts/UserProfile.sol",
  "abi": [
    {
      "anonymous": false,
      "inputs": [
        {
          "indexed": false,
          "internalType": "string",
          "name": "message",
          "type": "string"
        },
        {
          "indexed": false,
          "internalType": "bytes32",
          "name": "data",
          "type": "bytes32"
        },
        {
          "indexed": false,
          "internalType": "address",
          "name": "addr",
          "type": "address"
        }
      ],
      "name": "Debug",
      "type": "event"
    },
    {
      "anonymous": false,
      "inputs": [
        {
          "indexed": false,
          "internalType": "bytes32",
          "name": "hash",
          "type": "bytes32"
        }
      ],
      "name": "DebugHash",
      "type": "event"
    },
    {
      "anonymous": false,
      "inputs": [
        {
          "indexed": false,
          "internalType": "string",
          "name": "message",
          "type": "string"
        }
      ],
      "name": "DebugMessage",
      "type": "event"
    },
    {
      "anonymous": false,
      "inputs": [
        {
          "indexed": false,
          "internalType": "bytes32",
          "name": "r",
          "type": "bytes32"
        },
        {
          "indexed": false,
          "internalType": "bytes32",
          "name": "s",
          "type": "bytes32"
        },
        {
          "indexed": false,
          "internalType": "uint8",
          "name": "v",
          "type": "uint8"
        },
        {
          "indexed": false,
          "internalType": "address",
          "name": "recovered",
          "type": "address"
        }
      ],
      "name": "DebugSignature",
      "type": "event"
    },
    {
      "anonymous": false,
      "inputs": [
        {
          "indexed": true,
          "internalType": "address",
          "name": "user",
          "type": "address"
        },
        {
          "indexed": false,
          "internalType": "string",
          "name": "storjUrl",
          "type": "string"
        },
        {
          "indexed": false,
          "internalType": "uint256",
          "name": "timestamp",
          "type": "uint256"
        }
      ],
      "name": "ProfileCreated",
      "type": "event"
    },
    {
      "inputs": [
        {
          "internalType": "string",
          "name": "storjUrl",
          "type": "string"
        },
        {
          "internalType": "bytes32",
          "name": "legalNameHash",
          "type": "bytes32"
        },
        {
          "internalType": "string",
          "name": "nickname",
          "type": "string"
        },
        {
          "internalType": "bytes",
          "name": "signature",
          "type": "bytes"
        }
      ],
      "name": "createProfile",
      "outputs": [],
      "stateMutability": "nonpayable",
      "type": "function"
    },
    {
      "inputs": [
        {
          "internalType": "address",
          "name": "user",
          "type": "address"
        }
      ],
      "name": "getProfile",
      "outputs": [
        {
          "components": [
            {
              "internalType": "string",
              "name": "storjProfileUrl",
              "type": "string"
            },
            {
              "internalType": "bytes32",
              "name": "legalNameHash",
              "type": "bytes32"
            },
            {
              "internalType": "bool",
              "name": "legalNameChanged",
              "type": "bool"
            },
            {
              "internalType": "uint256",
              "name": "createdAt",
              "type": "uint256"
            },
            {
              "internalType": "uint256",
              "name": "nonce",
              "type": "uint256"
            }
          ],
          "internalType": "struct UserProfileDebug.Profile",
          "name": "",
          "type": "tuple"
        }
      ],
      "stateMutability": "view",
      "type": "function"
    },
    {
      "inputs": [
        {
          "internalType": "string",
          "name": "",
          "type": "string"
        }
      ],
      "name": "nicknameToAddress",
      "outputs": [
        {
          "internalType": "address",
          "name": "",
          "type": "address"
        }
      ],
      "stateMutability": "view",
      "type": "function"
    },
    {
      "inputs": [
        {
          "internalType": "address",
          "name": "user",
          "type": "address"
        }
      ],
      "name": "profileExists",
      "outputs": [
        {
          "internalType": "bool",
          "name": "",
          "type": "bool"
        }
      ],
      "stateMutability": "view",
      "type": "function"
    },
    {
      "inputs": [
        {
          "internalType": "address",
          "name": "",
          "type": "address"
        }
      ],
      "name": "profiles",
      "outputs": [
        {
          "internalType": "string",
          "name": "storjProfileUrl",
          "type": "string"
        },
        {
          "internalType": "bytes32",
          "name": "legalNameHash",
          "type": "bytes32"
        },
        {
          "internalType": "bool",
          "name": "legalNameChanged",
          "type": "bool"
        },
        {
          "internalType": "uint256",
          "name": "createdAt",
          "type": "uint256"
        },
        {
          "internalType": "uint256",
          "name": "nonce",
          "type": "uint256"
        }
      ],
      "stateMutability": "view",
      "type": "function"
    },
    {
      "inputs": [
        {
          "internalType": "string",
          "name": "storjUrl",
          "type": "string"
        },
        {
          "internalType": "bytes32",
          "name": "legalNameHash",
          "type": "bytes32"
        },
        {
          "internalType": "string",
          "name": "nickname",
          "type": "string"
        }
      ],
      "name": "testMessage",
      "outputs": [
        {
          "internalType": "string",
          "name": "",
          "type": "string"
        }
      ],
      "stateMutability": "view",
      "type": "function"
    },
    {
      "inputs": [
        {
          "internalType": "string",
          "name": "message",
          "type": "string"
        },
        {
          "internalType": "bytes",
          "name": "signature",
          "type": "bytes"
        }
      ],
      "name": "testSignatureRecovery",
      "outputs": [
        {
          "internalType": "address",
          "name": "recovered",
          "type": "address"
        }
      ],
      "stateMutability": "view",
      "type": "function"
    }
  ],
  "bytecode": "0x608060405234801561001057600080fd5b506118fb806100206000396000f3fe608060405234801561001057600080fd5b506004361061007d5760003560e01c80639e84e3a11161005b5780639e84e3a1146100fa578063bbe1562714610146578063d8a8abfb1461016a578063f621b1591461017d57600080fd5b806305cfa06f146100825780630f53a470146100c55780635587a20e146100e5575b600080fd5b6100b0610090366004610feb565b6001600160a01b0316600090815260208190526040902060030154151590565b60405190151581526020015b60405180910390f35b6100d86100d3366004610feb565b61019d565b6040516100bc919061106b565b6100f86100f3366004611106565b6102b0565b005b61012e6101083660046111c0565b80516020818301810180516001825292820191909301209152546001600160a01b031681565b6040516001600160a01b0390911681526020016100bc565b610159610154366004610feb565b61083a565b6040516100bc959493929190611271565b61012e6101783660046112a8565b6108f5565b61019061018b366004611314565b610a14565b6040516100bc919061138e565b6040805160a0810182526060808252600060208301819052928201839052810182905260808101919091526001600160a01b03821660009081526020819052604090819020815160a081019092528054829082906101fa906113a1565b80601f0160208091040260200160405190810160405280929190818152602001828054610226906113a1565b80156102735780601f1061024857610100808354040283529160200191610273565b820191906000526020600020905b81548152906001019060200180831161025657829003601f168201915b505050918352505060018201546020820152600282015460ff16151560408201526003820154606082015260049091015460809091015292915050565b6040805160608082526019908201527f5374617274696e672070726f66696c65206372656174696f6e00000000000000608082015260208101879052338183015290516000805160206118a68339815191529181900360a00190a1336000908152602081905260409020600301541561036c576000805160206118a68339815191526000336040516103439291906113db565b60405180910390a160405162461bcd60e51b81526004016103639061142f565b60405180910390fd5b60006001600160a01b03166001858560405161038992919061146b565b908152604051908190036020019020546001600160a01b0316146103e7576000805160206118a68339815191526000336040516103c792919061147b565b60405180910390a160405162461bcd60e51b8152600401610363906114a9565b600087876103f488610a5b565b87876103ff33610c28565b604051602001610414969594939291906114d7565b60405160208183030381529060405290507f2ca7ea951db3bc93c3c659c7ddf08261b1b1153e0685c16b88444c6235865c5381604051610454919061138e565b60405180910390a160008160405160200161046f9190611557565b60408051601f1981840301815290829052805160209182012080835292507fd6bb8e17062dc41668755c8f977e71bcbad0e687e1328bc6247a4c90f658bc24910160405180910390a160006104c48351610df8565b836040516020016104d6929190611573565b60408051601f1981840301815290829052805160209182012080835292507fd6bb8e17062dc41668755c8f977e71bcbad0e687e1328bc6247a4c90f658bc24910160405180910390a1600080600061056388888080601f016020809104026020016040519081016040528093929190818152602001838380828437600092019190915250610f0192505050565b604080518481526020810184905260ff83168183015260006060820152905193965091945092507ff5ecb6508a5740142da47b075668676982f3c32d310234bca55e44e7948f62af919081900360800190a16040805160008082526020820180845287905260ff841692820192909252606081018590526080810184905260019060a0016020604051602081039080840390855afa158015610609573d6000803e3d6000fd5b505060408051601f198101518782526020820187905260ff8616828401526001600160a01b038116606083015291519193507ff5ecb6508a5740142da47b075668676982f3c32d310234bca55e44e7948f62af925081900360800190a16001600160a01b03811633146106b6576000805160206118a68339815191526000336040516106969291906115ce565b60405180910390a160405162461bcd60e51b8152600401610363906115ff565b6040518060a001604052808f8f8080601f016020809104026020016040519081016040528093929190818152602001838380828437600081840152601f19601f8201169050808301925050505050505081526020018d81526020016000151581526020014281526020016000815250600080336001600160a01b03166001600160a01b03168152602001908152602001600020600082015181600001908161075e919061167f565b506020820151816001015560408201518160020160006101000a81548160ff02191690831515021790555060608201518160030155608082015181600401559050503360018c8c6040516107b392919061146b565b908152602001604051809103902060006101000a8154816001600160a01b0302191690836001600160a01b03160217905550336001600160a01b03167f25dbccf9f713a2b16ed5d635585b4778d0d7e66b7b631871e668a694131e5fad8f8f426040516108229392919061173f565b60405180910390a25050505050505050505050505050565b600060208190529081526040902080548190610855906113a1565b80601f0160208091040260200160405190810160405280929190818152602001828054610881906113a1565b80156108ce5780601f106108a3576101008083540402835291602001916108ce565b820191906000526020600020905b8154815290600101906020018083116108b157829003601f168201915b505050506001830154600284015460038501546004909501549394919360ff909116925085565b600080858560405160200161090b92919061146b565b60408051601f1981840301815291905280516020909101209050600061093086610df8565b878760405160200161094493929190611778565b60405160208183030381529060405280519060200120905060008060006109a088888080601f016020809104026020016040519081016040528093929190818152602001838380828437600092019190915250610f0192505050565b60408051600081526020810180835289905260ff8316918101919091526060810184905260808101839052929550909350915060019060a0016020604051602081039080840390855afa1580156109fb573d6000803e3d6000fd5b5050604051601f1901519b9a5050505050505050505050565b60608585610a2186610a5b565b8585610a2c33610c28565b604051602001610a41969594939291906114d7565b604051602081830303815290604052905095945050505050565b604080518082018252601081526f181899199a1a9b1b9c1cb0b131b232b360811b6020820152815160428082526080820190935260609260009190602082018180368337019050509050600360fc1b81600081518110610abd57610abd6117cc565b60200101906001600160f81b031916908160001a905350600f60fb1b81600181518110610aec57610aec6117cc565b60200101906001600160f81b031916908160001a90535060005b6020811015610c2057826004868360208110610b2457610b246117cc565b1a60f81b6001600160f81b031916901c60f81c60ff1681518110610b4a57610b4a6117cc565b01602001516001600160f81b03191682610b658360026117f8565b610b7090600261180f565b81518110610b8057610b806117cc565b60200101906001600160f81b031916908160001a90535082858260208110610baa57610baa6117cc565b825191901a600f16908110610bc157610bc16117cc565b01602001516001600160f81b03191682610bdc8360026117f8565b610be790600361180f565b81518110610bf757610bf76117cc565b60200101906001600160f81b031916908160001a90535080610c1881611822565b915050610b06565b509392505050565b604080518082018252601081526f181899199a1a9b1b9c1cb0b131b232b360811b60208201528151602a808252606082810190945284841b9291600091602082018180368337019050509050600360fc1b81600081518110610c8c57610c8c6117cc565b60200101906001600160f81b031916908160001a905350600f60fb1b81600181518110610cbb57610cbb6117cc565b60200101906001600160f81b031916908160001a90535060005b6014811015610def57826004858360148110610cf357610cf36117cc565b1a60f81b6001600160f81b031916901c60f81c60ff1681518110610d1957610d196117cc565b01602001516001600160f81b03191682610d348360026117f8565b610d3f90600261180f565b81518110610d4f57610d4f6117cc565b60200101906001600160f81b031916908160001a90535082848260148110610d7957610d796117cc565b825191901a600f16908110610d9057610d906117cc565b01602001516001600160f81b03191682610dab8360026117f8565b610db690600361180f565b81518110610dc657610dc66117cc565b60200101906001600160f81b031916908160001a90535080610de781611822565b915050610cd5565b50949350505050565b606081600003610e1f5750506040805180820190915260018152600360fc1b602082015290565b8160005b8115610e495780610e3381611822565b9150610e429050600a83611851565b9150610e23565b60008167ffffffffffffffff811115610e6457610e646111aa565b6040519080825280601f01601f191660200182016040528015610e8e576020820181803683370190505b5090505b8415610ef957610ea3600183611865565b9150610eb0600a86611878565b610ebb90603061180f565b60f81b818381518110610ed057610ed06117cc565b60200101906001600160f81b031916908160001a905350610ef2600a86611851565b9450610e92565b949350505050565b60008060008351604114610f575760405162461bcd60e51b815260206004820152601860248201527f496e76616c6964207369676e6174757265206c656e67746800000000000000006044820152606401610363565b50505060208101516040820151606083015160001a601b811015610f8357610f80601b8261188c565b90505b8060ff16601b1480610f9857508060ff16601c145b610fe45760405162461bcd60e51b815260206004820152601960248201527f496e76616c6964207369676e617475726520762076616c7565000000000000006044820152606401610363565b9193909250565b600060208284031215610ffd57600080fd5b81356001600160a01b038116811461101457600080fd5b9392505050565b60005b8381101561103657818101518382015260200161101e565b50506000910152565b6000815180845261105781602086016020860161101b565b601f01601f19169290920160200192915050565b602081526000825160a0602084015261108760c084018261103f565b90506020840151604084015260408401511515606084015260608401516080840152608084015160a08401528091505092915050565b60008083601f8401126110cf57600080fd5b50813567ffffffffffffffff8111156110e757600080fd5b6020830191508360208285010111156110ff57600080fd5b9250929050565b60008060008060008060006080888a03121561112157600080fd5b873567ffffffffffffffff8082111561113957600080fd5b6111458b838c016110bd565b909950975060208a0135965060408a013591508082111561116557600080fd5b6111718b838c016110bd565b909650945060608a013591508082111561118a57600080fd5b506111978a828b016110bd565b989b979a50959850939692959293505050565b634e487b7160e01b600052604160045260246000fd5b6000602082840312156111d257600080fd5b813567ffffffffffffffff808211156111ea57600080fd5b818401915084601f8301126111fe57600080fd5b813581811115611210576112106111aa565b604051601f8201601f19908116603f01168101908382118183101715611238576112386111aa565b8160405282815287602084870101111561125157600080fd5b826020860160208301376000928101602001929092525095945050505050565b60a08152600061128460a083018861103f565b60208301969096525092151560408401526060830191909152608090910152919050565b600080600080604085870312156112be57600080fd5b843567ffffffffffffffff808211156112d657600080fd5b6112e2888389016110bd565b909650945060208701359150808211156112fb57600080fd5b50611308878288016110bd565b95989497509550505050565b60008060008060006060868803121561132c57600080fd5b853567ffffffffffffffff8082111561134457600080fd5b61135089838a016110bd565b909750955060208801359450604088013591508082111561137057600080fd5b5061137d888289016110bd565b969995985093965092949392505050565b602081526000611014602083018461103f565b600181811c908216806113b557607f821691505b6020821081036113d557634e487b7160e01b600052602260045260246000fd5b50919050565b60608152600061141160608301601681527550726f66696c6520616c72656164792065786973747360501b602082015260400190565b6020830194909452506001600160a01b039190911660409091015290565b60208152600061146560208301601681527550726f66696c6520616c72656164792065786973747360501b602082015260400190565b92915050565b8183823760009101908152919050565b60608152600061141160608301600e81526d2734b1b5b730b6b2903a30b5b2b760911b602082015260400190565b60208152600061146560208301600e81526d2734b1b5b730b6b2903a30b5b2b760911b602082015260400190565b70021b932b0ba3290283937b334b63290169607d1b81528587601183013760008682016201016960ed1b806011830152875161151a816014850160208c0161101b565b6014920191820181905285876017840137601791860191820152835161154781601a84016020880161101b565b01601a0198975050505050505050565b6000825161156981846020870161101b565b9190910192915050565b7f19457468657265756d205369676e6564204d6573736167653a0a0000000000008152600083516115ab81601a85016020880161101b565b8351908301906115c281601a84016020880161101b565b01601a01949350505050565b606081526000611411606083016011815270496e76616c6964207369676e617475726560781b602082015260400190565b602081526000611465602083016011815270496e76616c6964207369676e617475726560781b602082015260400190565b601f82111561167a57600081815260208120601f850160051c810160208610156116575750805b601f850160051c820191505b8181101561167657828155600101611663565b5050505b505050565b815167ffffffffffffffff811115611699576116996111aa565b6116ad816116a784546113a1565b84611630565b602080601f8311600181146116e257600084156116ca5750858301515b600019600386901b1c1916600185901b178555611676565b600085815260208120601f198616915b82811015611711578886015182559484019460019091019084016116f2565b508582101561172f5787850151600019600388901b60f8161c191681555b5050505050600190811b01905550565b604081528260408201528284606083013760006060848301015260006060601f19601f8601168301019050826020830152949350505050565b7f19457468657265756d205369676e6564204d6573736167653a0a0000000000008152600084516117b081601a85016020890161101b565b82018385601a83013760009301601a0192835250909392505050565b634e487b7160e01b600052603260045260246000fd5b634e487b7160e01b600052601160045260246000fd5b8082028115828204841417611465576114656117e2565b80820180821115611465576114656117e2565b600060018201611834576118346117e2565b5060010190565b634e487b7160e01b600052601260045260246000fd5b6000826118605761186061183b565b500490565b81810381811115611465576114656117e2565b6000826118875761188761183b565b500690565b60ff8181168382160190811115611465576114656117e256fe21966e86db68246feb6ab5f064f983a579cf9b0e394f47117c1e18ed7b401d5ba2646970667358221220451ac8d71fd803eb1ff9c16dadd4250a44a7b0711fee8970435e89b9b4e5bb3d64736f6c63430008130033",
  "linkReferences": {},
  "deployedLinkReferences": {}
}